:020000040800F2
:100000007006002029020008650200086702000847
:10001000690200086B0200086D0200080000000081
:100020000000000000000000000000006F02000857
:100030007102000800000000730200087502000849
:1000400077020008770200087702000877020008AC
:10005000770200087702000877020008770200089C
:10006000770200087702000877020008770200088C
:10007000770200087702000877020008770200087C
:10008000770200087702000877020008770200086C
:10009000770200087702000877020008770200085C
:1000A000770200087702000877020008770200084C
:1000B00077020008770200088D1100087702000817
:1000C000770200087702000877020008770200082C
:1000D000770200087702000877020008770200081C
:1000E000770200087702000877020008770200080C
:1000F00077020008770200087702000877020008FC
:1001000077020008770200087702000877020008EB
:1001100077020008770200087702000877020008DB
:1001200077020008770200087702000877020008CB
:1001300077020008770200087702000877020008BB
:1001400077020008770200087702000877020008AB
:10015000770200087702000877020008770200089B
:10016000770200087702000877020008770200088B
:1001700077020008770200087702000800000000FC
:10018000770200087702000800F002F800F03CF85F
:100190000AA090E8000C82448344AAF10107DA45E2
:1001A00001D100F031F8AFF2090EBAE80F0013F0F8
:1001B000010F18BFFB1A43F0010318473812000063
:1001C00058120000103A24BF78C878C1FAD85207F4
:1001D00024BF30C830C144BF04680C6070470000C1
:1001E0000023002400250026103A28BF78C1FBD840
:1001F000520728BF30C148BF0B6070471FB501F0E0
:10020000CFF81FBD10B510BD00F053F81146FFF731
:10021000F5FF01F0B5F800F071F803B4FFF7F2FF55
:1002200003BC00F079F8000016481749174B9942B3
:100230003CBF50F8042B41F8042BF8D314494FF07D
:1002400000028B4238BF43F8042BFAD3DFF8440096
:10025000016841F470010160BFF34F8FBFF36F8FEE
:100260000D480047FEE7FEE7FEE7FEE7FEE7FEE794
:10027000FEE7FEE7FEE7FEE708480949094A0A4BA0
:100280007047000014140008000000200C0000203B
:100290007006002088ED00E0890100087000002051
:1002A0007006002070020020700200207047704726
:1002B0007047754600F02CF8AE4605006946534677
:1002C00020F00700854618B020B5FFF7D5FFBDE840
:1002D00020404FF000064FF000074FF000084FF0AD
:1002E000000B21F00701AC46ACE8C009ACE8C0093E
:1002F000ACE8C009ACE8C0098D46704710B50446AB
:10030000AFF300802046BDE81040FFF786BF000035
:10031000004870470C00002001491820ABBEFEE7E2
:1003200026000200704700001E4AD16C41F0100107
:10033000D1641C4A116E41F4006111661A480168CB
:100340004FF400326FF4403301EA030141EA020145
:100350000160416A4FF001026FF00F0301EA0301EF
:1003600041EA02014162C1686FF440324FF000037C
:1003700001EA020141EA0301C16041684FF6FF62F0
:100380004FF0000301EA020141EA03014160816884
:100390006FF440324FF4003301EA020141EA0301F5
:1003A000816000000010024000100048144880687E
:1003B00020F003001249886000BF1148006800F077
:1003C00002000028F9D00E48006820F008000C490F
:1003D00008600846006840F00800086008460068A9
:1003E00020F0F00008600846006840F080000860D7
:1003F00000BF0348006800F002000028F9D07047F1
:1004000000100240002000BF0B49096801F0040100
:100410000029F9D1002006E0002207490C3141F8FB
:100420002020411CC8B20F28F6DD0349096841F0BD
:100430000401014A11607047082400402F48806D74
:1004400000F0805028B92D48806D40F080502B4935
:1004500088652A48806D2A48006800F4807060B979
:100460002748006840F480702549086000BF244890
:10047000006800F480700028F9D0204890300068AF
:1004800020F005001D49C1F890000846D0F8900002
:1004900040F48030C1F890000846D0F8900020F475
:1004A0008030C1F8900007E014489030006840F0B8
:1004B00001001249C1F8900010489030006800F027
:1004C00002000028F0D00D489030006820F4407001
:1004D0000A49C1F890000846D0F8900040F48070B6
:1004E000C1F890000846806D20F08050886508466D
:1004F000806D40F400708865704700000010024075
:10050000007000403A48006820F004003849086054
:100510000846006840F0040008600846006820F0C3
:10052000080008600846006840F0080008600846B7
:10053000006820F0100008600846006820F0020003
:1005400008600846006820F020000860084600683F
:1005500020F0400008600846006840F04000086055
:100560000846006820F4807008600846006820F0A3
:10057000800008600846006820F001000860084616
:10058000006840F001000860081D006820F070005D
:10059000091D08600846006840F0700008600846C1
:1005A000006820F4E05008600846006840F4E0501D
:1005B00008600846006820F460400860084600684B
:1005C00040F4804008600846006820F4403008602D
:1005D0000846006820F4701008600846006840F47F
:1005E000701008600846006820F07070086070475E
:1005F00000240040F0B50C461546002100260022DC
:100600000778342F53D00FDCA7F12007142F5AD2CC
:10061000DFE807F02359595959435959282A253BEE
:100620005938593E494A4B4C642F1FD008DCA7F17A
:100630003507052F47D2DFE807F03B3C3D3E3F0042
:10064000B02F27D004DC6D2F13D06E2F3BD113E0D9
:10065000B52F14D0FF2F36D122E000214CE04AF212
:10066000DD0149E0282147E0112145E04FF47341C5
:1006700042E04BF210213FE042F210213CE046F212
:10068000840139E04FF4204136E04AF2140133E0AE
:10069000C02131E04FF46C412EE04FF433412BE0A8
:1006A0004FF6DD7128E000BF00BF00BF00BF00BFF4
:1006B00000BF00BF00BF00BF0778303FDFF864C055
:1006C0003CF8171018E007785B2F08DA0778402FFE
:1006D00005DD0778413FDFF850C03CF81710077878
:1006E0007B2F08DA0778602F05DD0778613FDFF898
:1006F00038C03CF8171000BF00BF0CB141F0020138
:100700000DB141F020010C26002208E041FA06F765
:1007100007F00F079F54371FFEB2571CFAB2042A86
:10072000F4DBF0BDDE130008AA13000870B505461F
:100730000024062600BF06E0E3B228190022114675
:1007400000F0F8F8641C062CF6DB70BD00B5FFF76E
:1007500075FE00F005F8FFF7D5FEFFF753FE00BD6C
:100760006548C06C40F001006349C8640846C06C2D
:1007700040F00200C8640846C06C40F00400C86441
:100780000846C06C40F00800C8644FF09040006814
:100790005A4908404FF0904108600846006858499F
:1007A00008434FF090410860564800685649084099
:1007B0005449086008460068544908435149086094
:1007C000534800685349084051490860084600688A
:1007D000514908434E4908605048006880B24F496B
:1007E0000860084600684E4908434C4908604FF0CD
:1007F0009040006A20F07F404FF090410862084628
:10080000406A484908404FF0904148620846006AF3
:1008100040F03B4008620846406A434908434FF0B5
:100820009041486237482030006800F0FF20354989
:10083000203108603348406A4FF60F710840314953
:10084000486230482030006840F0BB102D4920310C
:1008500008602C48406A354908432A4948622C48B8
:1008600020300068C0F30B00294920310860284877
:10087000406A20F00F012648416225482030006878
:100880002B4908432249203108602148406A40F042
:100890000B011F4841622148203000681F49203168
:1008A00008601E48406A00211C4841621B482030F5
:1008B00000681A49203108601848406A40F0BB318E
:1008C000164841624FF09040006840F6FF4188436F
:1008D0004FF0904108600846C06840F6FF418843E9
:1008E0004FF09041C8600846C06840F6AA0108432E
:1008F0004FF09041C860704700100240FF0FC03FAA
:1009000000A02A8000040048F0F0F3000A0A08AAB8
:10091000000800483F00FCFF80AA0200000C0048CD
:100920000000AAAA00F0FF0FBB0B00B0B000BBBBD9
:1009300000B0BBBBF8B505460E4617461C466B46D5
:100940003A4631462846FFF755FE00BFFE4800688C
:1009500000F004000028F9D1062C7DD2DFE804F075
:100960000398FCFBFAF9F8480C300068F749084096
:10097000F5490C310860F4480838C069F34908406B
:10098000F1490839C8610846406AF0490840EE4913
:10099000083948620846C06AEC490840EA49083903
:1009A000C8629DF80000C007C00E9DF80010C1F39A
:1009B000400140EAC1509DF80010C1F3800140EAB7
:1009C00081509DF80010C1F3C00140EAC100DE492A
:1009D0000C3109680843DC490C3108609DF80100BE
:1009E000C007C00E9DF80110C1F3400140EAC1509C
:1009F0009DF80110C1F3800140EA81509DF801107B
:100A0000C1F3C00140EAC100CF490839C9690843B0
:100A1000CD490839C8619DF80200C007C00E9DF895
:100A20000210C1F3400140EAC1509DF80210C1F329
:100A3000800140EA81509DF80210C1F3C00140EAF4
:100A4000C100C1490839496A0843BF4908394862A9
:100A50009DF80300C00700E02EE3C00E9DF80310D0
:100A6000C1F3400140EAC1509DF80310C1F3800179
:100A700040EA81509DF80310C1F3C00140EAC10073
:100A8000B1490839C96A0843AF490839C86214E353
:100A9000AD480C30006843F260018843AA490C312C
:100AA0000860A9480838C06943F260018843A64934
:100AB0000839C8610846406A43F260018843A24988
:100AC000083948620846C06A43F2600188439E497B
:100AD0000839C8629DF80000C007400E9DF800105C
:100AE000C1F3400140EA41309DF80010C1F380019C
:100AF00040EA01309DF80010C1F3C00140EA411006
:100B000091490C31096808438F490C3108609DF800
:100B10000100C007400E9DF80110C1F3400140EAFA
:100B200041309DF80110C1F3800140EA01309DF889
:100B30000110C1F3C00140EA411083490839C96975
:100B4000084381490839C8619DF80200C007400E7A
:100B500003E028E27CE1CAE036E09DF80210C1F330
:100B6000400140EA41309DF80210C1F3800140EAA3
:100B700001309DF80210C1F3C00140EA41107249F2
:100B80000839496A08437049083948629DF80300EA
:100B9000C007400E9DF80310C1F3400140EA413008
:100BA0009DF80310C1F3800140EA01309DF8031065
:100BB000C1F3C00140EA411063490839C96A0843DA
:100BC00061490839C86278E25F480C3000686049C2
:100BD00008405D490C3108605B480838C0695C49D1
:100BE000084059490839C8610846406A58490840D0
:100BF0005549083948620846C06A55490840524973
:100C00000839C8629DF80000C007000C9DF800106C
:100C1000C1F3400140EA41709DF80010C1F380012A
:100C200040EA01709DF80010C1F3C00140EA813034
:100C300045490C310968084343490C3108609DF867
:100C40000100C007000C9DF80110C1F3400140EA0B
:100C500041709DF80110C1F3800140EA01709DF8D8
:100C60000110C1F3C00140EA813037490839C96930
:100C7000084335490839C8619DF80200C007000CD7
:100C80009DF80210C1F3400140EA41709DF8021046
:100C9000C1F3800140EA01709DF80210C1F3C00168
:100CA00040EA813028490839496A08432649083909
:100CB00048629DF80300C007000C9DF80310C1F3C3
:100CC000400140EA41709DF80310C1F3800140EA01
:100CD00001709DF80310C1F3C00140EA81301A4948
:100CE0000839C96A084318490839C862E5E1164855
:100CF0000C30006820F0404013490C310860124865
:100D00000838806920F003010F4808388161C06904
:100D100020F040410C480838C161006A20F003010E
:100D2000094808380162406A20F040410648083806
:100D30004162806A20F00301034808388162C06A7A
:100D400020F04041004805E008240040E7FF3FFF55
:100D5000FF3FFFCF0838C162006B20F00301DC4881
:100D600001639DF80000C0079DF80010C1F3C001A9
:100D700040EA8170D649143109680843D4491431D6
:100D800008609DF80000C0F380009DF80010C1F3DA
:100D9000400140EA4100CE4989690843CC49886155
:100DA0009DF80100C0079DF80110C1F3C00140EAA1
:100DB0008170C749C9690843C549C8619DF80100E8
:100DC000C0F380009DF80110C1F3400140EA4100EA
:100DD000BF49096A0843BE4908629DF80200C0077E
:100DE0009DF80210C1F3C00140EA8170B849496A18
:100DF0000843B74948629DF80200C0F380009DF89F
:100E00000210C1F3400140EA4100B149896A084338
:100E1000AF4988629DF80300C0079DF80310C1F335
:100E2000C00140EA8170AA49C96A0843A849C8625A
:100E30009DF80300C0F380009DF80310C1F340014A
:100E400040EA4100A249096B0843A149086334E123
:100E50009F481430006820F040709D4914310860AC
:100E60009B48806920F00C0199488161C06920F09D
:100E700040719748C161006A20F00C0194480162FA
:100E8000406A20F0407192484162806A20F00C0173
:100E90008F488162C06A20F040718D48C162006B4A
:100EA00020F00C018A4801639DF80000C0F3400067
:100EB00040069DF80010C1F3800140EA01608449BA
:100EC0001431096808438249143108609DF8000014
:100ED000C007000F9DF80010C1F3C00140EA810077
:100EE0007B49896908437A4988619DF80100C0F30C
:100EF000400040069DF80110C1F3800140EA016006
:100F00007349C96908437249C8619DF80100C00767
:100F1000000F9DF80110C1F3C00140EA81006C4947
:100F2000096A08436A4908629DF80200C0F340005C
:100F300040069DF80210C1F3800140EA0160644957
:100F4000496A0843624948629DF80200C007000FE1
:100F50009DF80210C1F3C00140EA81005C49896A32
:100F600008435B4988629DF80300C0F340004006D7
:100F70009DF80310C1F3800140EA01605449C96A39
:100F800008435349C8629DF80300C007000F9DF84D
:100F90000310C1F3C00140EA81004D49096B0843C9
:100FA0004B49086389E04A481430006849490840C1
:100FB0004749143108604648C069464908404449D9
:100FC000C8610846406A43490840414948620846AA
:100FD000C06A404908403E49C8629DF80000C00709
:100FE000800B9DF80010C1F3400140EA01209DF8FC
:100FF0000010C1F3800140EA41209DF80010C1F3C8
:10100000C00140EA8160324914310968084330491F
:10101000143108609DF80100C007800B9DF8011095
:10102000C1F3400140EA01209DF80110C1F38001A5
:1010300040EA41209DF80110C1F3C00140EA8160FF
:101040002349C96908432249C8619DF80200C007C5
:10105000800B9DF80210C1F3400140EA01209DF889
:101060000210C1F3800140EA41209DF80210C1F353
:10107000C00140EA81601649496A08431449486240
:101080009DF80300C007800B9DF80310C1F34001D9
:1010900040EA01209DF80310C1F3800140EA41209D
:1010A0009DF80310C1F3C00140EA81600849C96A94
:1010B00008430749C86200E000BF00BF0448083089
:1010C000006840F00400024908310860F8BD0000E3
:1010D00000240040FFFCFDFB1548C06C40F00200FE
:1010E0001349C8646FF4405012490860084600680C
:1010F00040F4005008600F480C30006820F4405065
:101100000C490C3108600B48406A0A49486208469D
:10111000406A486207482030006820F07060054946
:10112000203108600846006840F000700860704791
:1011300000100240000400481248C06C40F010004B
:101140001049C8646FF440000F4908600846006801
:1011500040F4000008600846C06820F44000C86001
:101160000846006A08620846006A08620846406A43
:1011700020F4704104484162406A40F480510248C2
:1011800041627047001002400010004810B514483A
:10119000006800F0020090B1114824300468114842
:1011A0000068C0F101000F4908600846006820B9D6
:1011B0000D480068201A0D4908600B480460084873
:1011C000006800F0010028B10548006820F0010027
:1011D0000349086005480068FFF7A8FA10BD000041
:1011E000100800400800002004000020000000203B
:1011F0002548006E40F400602349086623480068D3
:1012000020F01000214908609F2020492831086003
:1012100040F6FF70091D08601C48183000681C4922
:1012200008401A49183108600846006840F4C04078
:1012300008600846006840F40060086013482030E9
:10124000006820F0800011492031086008460068DD
:1012500040F0100008600846006840F04000086058
:101260000A484430006840F40040084944310860AE
:101270000D200649383108600448006840F001003C
:10128000024908607047000000100240002C014035
:10129000FF8FFFFE10B53648806D40F004003449E2
:1012A00088657F20334908604FF6FF70091D08608C
:1012B00030481038006820F003002E4910390860CB
:1012C0000846006840F0010008600846006820F009
:1012D000F000086027480838006840F00A002549F7
:1012E0000839086023481038006820F00C002149B4
:1012F000103908601F480838006840F001001D4997
:10130000083908601B481C38006840F00200194981
:101310001C3908600846006840F4007008601548F1
:101320002838006840F001001249283908601E2062
:101330000021002804DB0A07130E0F4A135406E0AD
:101340000A07140E0D4A00F00F031B1FD45400BFF0
:101350001E20002809DB00F01F02012191404209F4
:10136000920002F1E022C2F8001100BF10BD00009F
:10137000001002402808004000E400E018ED00E002
:10138000FFF714F8FFF7A8FEFFF7D6FEFFF7DEF928
:10139000FFF738F8FFF77EFFFFF72AFF00BFFEE7F1
:1013A0004FF04070E1EE100A704700FE1467001D18
:1013B0001447009D009C003F00FA14000053419820
:1013C0000019485A095A005F00FC015F01FC00AF98
:1013D0001404005BC018815AC9005800C005005FA2
:1013E000004200F5006700EA00AF00BF004600FFC2
:1013F00000EF000014140008000000200C000000A2
:10140000C4010008201400080C000020640600003D
:10141000E0010008000000000000000000000000E3
:0400000500000000F7
:00000001FF
